{
  "address": "0xbA9E909aaA28D0C19C0E314239C04c80E1AEecaC",
  "abi": [
    {
      "inputs": [
        {
          "internalType": "address",
          "name": "_zkVerifier",
          "type": "address"
        }
      ],
      "stateMutability": "nonpayable",
      "type": "constructor"
    },
    {
      "anonymous": false,
      "inputs": [
        {
          "indexed": true,
          "internalType": "address",
          "name": "user",
          "type": "address"
        },
        {
          "indexed": false,
          "internalType": "uint256",
          "name": "amount",
          "type": "uint256"
        },
        {
          "indexed": false,
          "internalType": "uint256",
          "name": "pubSignal",
          "type": "uint256"
        }
      ],
      "name": "DepositMade",
      "type": "event"
    },
    {
      "anonymous": false,
      "inputs": [
        {
          "indexed": true,
          "internalType": "address",
          "name": "owner",
          "type": "address"
        },
        {
          "indexed": false,
          "internalType": "uint256",
          "name": "amount",
          "type": "uint256"
        }
      ],
      "name": "Withdrawal",
      "type": "event"
    },
    {
      "inputs": [
        {
          "internalType": "uint256",
          "name": "pubSignal",
          "type": "uint256"
        }
      ],
      "name": "depositFunds",
      "outputs": [],
      "stateMutability": "payable",
      "type": "function"
    },
    {
      "inputs": [
        {
          "internalType": "uint256",
          "name": "",
          "type": "uint256"
        }
      ],
      "name": "depositors",
      "outputs": [
        {
          "internalType": "address",
          "name": "",
          "type": "address"
        }
      ],
      "stateMutability": "view",
      "type": "function"
    },
    {
      "inputs": [
        {
          "internalType": "address",
          "name": "",
          "type": "address"
        },
        {
          "internalType": "uint256",
          "name": "",
          "type": "uint256"
        }
      ],
      "name": "deposits",
      "outputs": [
        {
          "internalType": "uint256",
          "name": "amount",
          "type": "uint256"
        },
        {
          "internalType": "uint256",
          "name": "pubSignal",
          "type": "uint256"
        }
      ],
      "stateMutability": "view",
      "type": "function"
    },
    {
      "inputs": [],
      "name": "getAllDepositors",
      "outputs": [
        {
          "internalType": "address[]",
          "name": "",
          "type": "address[]"
        }
      ],
      "stateMutability": "view",
      "type": "function"
    },
    {
      "inputs": [
        {
          "internalType": "address",
          "name": "depositor",
          "type": "address"
        }
      ],
      "name": "getDeposits",
      "outputs": [
        {
          "components": [
            {
              "internalType": "uint256",
              "name": "amount",
              "type": "uint256"
            },
            {
              "internalType": "uint256",
              "name": "pubSignal",
              "type": "uint256"
            }
          ],
          "internalType": "struct ZKFundingContract.Deposit[]",
          "name": "",
          "type": "tuple[]"
        }
      ],
      "stateMutability": "view",
      "type": "function"
    },
    {
      "inputs": [],
      "name": "owner",
      "outputs": [
        {
          "internalType": "address",
          "name": "",
          "type": "address"
        }
      ],
      "stateMutability": "view",
      "type": "function"
    },
    {
      "inputs": [
        {
          "internalType": "address",
          "name": "depositor",
          "type": "address"
        },
        {
          "internalType": "uint256",
          "name": "index",
          "type": "uint256"
        },
        {
          "internalType": "uint256[2]",
          "name": "_pA",
          "type": "uint256[2]"
        },
        {
          "internalType": "uint256[2][2]",
          "name": "_pB",
          "type": "uint256[2][2]"
        },
        {
          "internalType": "uint256[2]",
          "name": "_pC",
          "type": "uint256[2]"
        }
      ],
      "name": "verifyProof",
      "outputs": [
        {
          "internalType": "bool",
          "name": "",
          "type": "bool"
        }
      ],
      "stateMutability": "view",
      "type": "function"
    },
    {
      "inputs": [],
      "name": "withdrawFunds",
      "outputs": [],
      "stateMutability": "nonpayable",
      "type": "function"
    },
    {
      "inputs": [],
      "name": "zkVerifier",
      "outputs": [
        {
          "internalType": "contract Groth16Verifier",
          "name": "",
          "type": "address"
        }
      ],
      "stateMutability": "view",
      "type": "function"
    }
  ],
  "transactionHash": "0x6abec86e8b81d4a208b3409ead23a1e023d929acb53e7ba217ef1e9df71d27dd",
  "args": [
    "0xfD7A323C7e5e3D1489cFC966A96C9BdeFc024928"
  ],
  "numDeployments": 1,
  "solcInputHash": "d603a4ae19e2d61b2cd86ff7aec3c064",
  "bytecode": "0x608060405234801561001057600080fd5b50604051610ae8380380610ae883398101604081905261002f91610062565b60008054336001600160a01b031991821617909155600180549091166001600160a01b0392909216919091179055610092565b60006020828403121561007457600080fd5b81516001600160a01b038116811461008b57600080fd5b9392505050565b610a47806100a16000396000f3fe6080604052600436106100865760003560e01c80639da31417116100595780639da314171461011f578063d6d6817714610141578063d6df096d14610176578063e4b2fb7914610196578063ebc301d6146101b657600080fd5b806324600fc31461008b5780633b76594d146100a25780638da5cb5b146100b557806394f649dd146100f2575b600080fd5b34801561009757600080fd5b506100a06101e6565b005b6100a06100b0366004610703565b610322565b3480156100c157600080fd5b506000546100d5906001600160a01b031681565b6040516001600160a01b0390911681526020015b60405180910390f35b3480156100fe57600080fd5b5061011261010d366004610738565b61043d565b6040516100e9919061075a565b34801561012b57600080fd5b506101346104c6565b6040516100e991906107a9565b34801561014d57600080fd5b5061016161015c3660046107f6565b610528565b604080519283526020830191909152016100e9565b34801561018257600080fd5b506001546100d5906001600160a01b031681565b3480156101a257600080fd5b506100d56101b1366004610703565b610564565b3480156101c257600080fd5b506101d66101d13660046108a7565b61058e565b60405190151581526020016100e9565b6000546001600160a01b031633146102545760405162461bcd60e51b815260206004820152602660248201527f4f6e6c7920746865206f776e65722063616e2063616c6c20746869732066756e60448201526531ba34b7b71760d11b60648201526084015b60405180910390fd5b47806102a25760405162461bcd60e51b815260206004820152601e60248201527f4e6f2066756e647320617661696c61626c6520746f2077697468647261770000604482015260640161024b565b600080546040516001600160a01b039091169183156108fc02918491818181858888f193505050501580156102db573d6000803e3d6000fd5b506000546040518281526001600160a01b03909116907f7fcf532c15f0a6db0bd6d0e038bea71d30d808c7d98cb3bf7268a95bf5081b65906020015b60405180910390a250565b600034116103725760405162461bcd60e51b815260206004820152601860248201527f4d7573742073656e642045544820746f206465706f7369740000000000000000604482015260640161024b565b3360008181526002602081815260408084208151808301909252348252818301878152815460018181018455838852858820945191870290940190815590519083015594909352529054900361040557600380546001810182556000919091527fc2575a0e9e593c00f959f8c92f12db2869c3395a3b0502d05e2516446f71f85b0180546001600160a01b031916331790555b604080513481526020810183905233917f0b05f0d1cd0819f155b8a61f60baf7767c1ee49d04aeaab701df236140eb93f99101610317565b6001600160a01b0381166000908152600260209081526040808320805482518185028101850190935280835260609492939192909184015b828210156104bb57838290600052602060002090600202016040518060400160405290816000820154815260200160018201548152505081526020019060010190610475565b505050509050919050565b6060600380548060200260200160405190810160405280929190818152602001828054801561051e57602002820191906000526020600020905b81546001600160a01b03168152600190910190602001808311610500575b5050505050905090565b6002602052816000526040600020818154811061054457600080fd5b600091825260209091206002909102018054600190910154909250905082565b6003818154811061057457600080fd5b6000918252602090912001546001600160a01b0316905081565b6001600160a01b03851660009081526002602052604081205485106105ed5760405162461bcd60e51b8152602060048201526015602482015274092dcecc2d8d2c840c8cae0dee6d2e840d2dcc8caf605b1b604482015260640161024b565b6001600160a01b038616600090815260026020526040812080548790811061061757610617610950565b6000918252602080832060408051808201825260029094029091018054845260019081015492840183905254905163624c8f8760e01b81529294506001600160a01b03169163624c8f8791610675918a918a918a919060040161098f565b602060405180830381865afa158015610692573d6000803e3d6000fd5b505050506040513d601f19601f820116820180604052508101906106b691906109ef565b9050806106f85760405162461bcd60e51b815260206004820152601060248201526f24b73b30b634b2103d3596b83937b7b360811b604482015260640161024b565b979650505050505050565b60006020828403121561071557600080fd5b5035919050565b80356001600160a01b038116811461073357600080fd5b919050565b60006020828403121561074a57600080fd5b6107538261071c565b9392505050565b602080825282518282018190526000919060409081850190868401855b8281101561079c57815180518552860151868501529284019290850190600101610777565b5091979650505050505050565b6020808252825182820181905260009190848201906040850190845b818110156107ea5783516001600160a01b0316835292840192918401916001016107c5565b50909695505050505050565b6000806040838503121561080957600080fd5b6108128361071c565b946020939093013593505050565b6040805190810167ffffffffffffffff8111828210171561085157634e487b7160e01b600052604160045260246000fd5b60405290565b600082601f83011261086857600080fd5b610870610820565b80604084018581111561088257600080fd5b845b8181101561089c578035845260209384019301610884565b509095945050505050565b600080600080600061014086880312156108c057600080fd5b6108c98661071c565b9450602080870135945060406108e189828a01610857565b945088609f8901126108f257600080fd5b6108fa610820565b806101008a018b81111561090d57600080fd5b60808b015b81811015610931576109248d82610857565b8452928501928401610912565b5081965061093f8c82610857565b955050505050509295509295909350565b634e487b7160e01b600052603260045260246000fd5b8060005b600281101561098957815184526020938401939091019060010161096a565b50505050565b610120810161099e8287610966565b60408083018660005b60028110156109ce576109bb838351610966565b91830191602091909101906001016109a7565b505050506109df60c0830185610966565b8261010083015295945050505050565b600060208284031215610a0157600080fd5b8151801515811461075357600080fdfea26469706673582212202b969557c079720443d3ff1898bca51fcc039457a4239e22309dbc2d0eaab57364736f6c63430008110033",
  "devdoc": {
    "kind": "dev",
    "methods": {},
    "version": 1
  },
  "userdoc": {
    "kind": "user",
    "methods": {},
    "version": 1
  },
  "storageLayout": {
    "storage": [
      {
        "astId": 26,
        "contract": "contracts/ZKFunding.sol:ZKFundingContract",
        "label": "owner",
        "offset": 0,
        "slot": "0",
        "type": "t_address"
      },
      {
        "astId": 29,
        "contract": "contracts/ZKFunding.sol:ZKFundingContract",
        "label": "zkVerifier",
        "offset": 0,
        "slot": "1",
        "type": "t_contract(Groth16Verifier)24"
      },
      {
        "astId": 40,
        "contract": "contracts/ZKFunding.sol:ZKFundingContract",
        "label": "deposits",
        "offset": 0,
        "slot": "2",
        "type": "t_mapping(t_address,t_array(t_struct(Deposit)34_storage)dyn_storage)"
      },
      {
        "astId": 43,
        "contract": "contracts/ZKFunding.sol:ZKFundingContract",
        "label": "depositors",
        "offset": 0,
        "slot": "3",
        "type": "t_array(t_address)dyn_storage"
      }
    ],
    "types": {
      "t_address": {
        "encoding": "inplace",
        "label": "address",
        "numberOfBytes": "20"
      },
      "t_array(t_address)dyn_storage": {
        "base": "t_address",
        "encoding": "dynamic_array",
        "label": "address[]",
        "numberOfBytes": "32"
      },
      "t_array(t_struct(Deposit)34_storage)dyn_storage": {
        "base": "t_struct(Deposit)34_storage",
        "encoding": "dynamic_array",
        "label": "struct ZKFundingContract.Deposit[]",
        "numberOfBytes": "32"
      },
      "t_contract(Groth16Verifier)24": {
        "encoding": "inplace",
        "label": "contract Groth16Verifier",
        "numberOfBytes": "20"
      },
      "t_mapping(t_address,t_array(t_struct(Deposit)34_storage)dyn_storage)": {
        "encoding": "mapping",
        "key": "t_address",
        "label": "mapping(address => struct ZKFundingContract.Deposit[])",
        "numberOfBytes": "32",
        "value": "t_array(t_struct(Deposit)34_storage)dyn_storage"
      },
      "t_struct(Deposit)34_storage": {
        "encoding": "inplace",
        "label": "struct ZKFundingContract.Deposit",
        "members": [
          {
            "astId": 31,
            "contract": "contracts/ZKFunding.sol:ZKFundingContract",
            "label": "amount",
            "offset": 0,
            "slot": "0",
            "type": "t_uint256"
          },
          {
            "astId": 33,
            "contract": "contracts/ZKFunding.sol:ZKFundingContract",
            "label": "pubSignal",
            "offset": 0,
            "slot": "1",
            "type": "t_uint256"
          }
        ],
        "numberOfBytes": "64"
      },
      "t_uint256": {
        "encoding": "inplace",
        "label": "uint256",
        "numberOfBytes": "32"
      }
    }
  }
}