{
  "address": "0x656F1f90fF5E7761c2484f75ceCC5D3DFD8B6D38",
  "abi": [
    {
      "inputs": [
        {
          "internalType": "address",
          "name": "_zkVerifier",
          "type": "address"
        }
      ],
      "stateMutability": "nonpayable",
      "type": "constructor"
    },
    {
      "anonymous": false,
      "inputs": [
        {
          "indexed": true,
          "internalType": "address",
          "name": "user",
          "type": "address"
        },
        {
          "indexed": false,
          "internalType": "uint256",
          "name": "amount",
          "type": "uint256"
        },
        {
          "indexed": false,
          "internalType": "uint256",
          "name": "pubSignal",
          "type": "uint256"
        }
      ],
      "name": "DepositMade",
      "type": "event"
    },
    {
      "anonymous": false,
      "inputs": [
        {
          "indexed": true,
          "internalType": "address",
          "name": "owner",
          "type": "address"
        },
        {
          "indexed": false,
          "internalType": "uint256",
          "name": "amount",
          "type": "uint256"
        }
      ],
      "name": "Withdrawal",
      "type": "event"
    },
    {
      "inputs": [
        {
          "internalType": "uint256",
          "name": "pubSignal",
          "type": "uint256"
        }
      ],
      "name": "depositFunds",
      "outputs": [],
      "stateMutability": "payable",
      "type": "function"
    },
    {
      "inputs": [
        {
          "internalType": "uint256",
          "name": "",
          "type": "uint256"
        }
      ],
      "name": "depositors",
      "outputs": [
        {
          "internalType": "address",
          "name": "",
          "type": "address"
        }
      ],
      "stateMutability": "view",
      "type": "function"
    },
    {
      "inputs": [
        {
          "internalType": "address",
          "name": "",
          "type": "address"
        },
        {
          "internalType": "uint256",
          "name": "",
          "type": "uint256"
        }
      ],
      "name": "deposits",
      "outputs": [
        {
          "internalType": "uint256",
          "name": "amount",
          "type": "uint256"
        },
        {
          "internalType": "uint256",
          "name": "pubSignal",
          "type": "uint256"
        }
      ],
      "stateMutability": "view",
      "type": "function"
    },
    {
      "inputs": [],
      "name": "getAllDepositors",
      "outputs": [
        {
          "internalType": "address[]",
          "name": "",
          "type": "address[]"
        }
      ],
      "stateMutability": "view",
      "type": "function"
    },
    {
      "inputs": [
        {
          "internalType": "address",
          "name": "depositor",
          "type": "address"
        }
      ],
      "name": "getDeposits",
      "outputs": [
        {
          "components": [
            {
              "internalType": "uint256",
              "name": "amount",
              "type": "uint256"
            },
            {
              "internalType": "uint256",
              "name": "pubSignal",
              "type": "uint256"
            }
          ],
          "internalType": "struct ZKFundingContract.Deposit[]",
          "name": "",
          "type": "tuple[]"
        }
      ],
      "stateMutability": "view",
      "type": "function"
    },
    {
      "inputs": [],
      "name": "owner",
      "outputs": [
        {
          "internalType": "address",
          "name": "",
          "type": "address"
        }
      ],
      "stateMutability": "view",
      "type": "function"
    },
    {
      "inputs": [
        {
          "internalType": "uint256[2]",
          "name": "_pA",
          "type": "uint256[2]"
        },
        {
          "internalType": "uint256[2][2]",
          "name": "_pB",
          "type": "uint256[2][2]"
        },
        {
          "internalType": "uint256[2]",
          "name": "_pC",
          "type": "uint256[2]"
        },
        {
          "internalType": "uint256[1]",
          "name": "_pubSignals",
          "type": "uint256[1]"
        }
      ],
      "name": "verifyProof",
      "outputs": [
        {
          "internalType": "bool",
          "name": "",
          "type": "bool"
        }
      ],
      "stateMutability": "view",
      "type": "function"
    },
    {
      "inputs": [],
      "name": "withdrawFunds",
      "outputs": [],
      "stateMutability": "nonpayable",
      "type": "function"
    },
    {
      "inputs": [],
      "name": "zkVerifier",
      "outputs": [
        {
          "internalType": "contract Groth16Verifier",
          "name": "",
          "type": "address"
        }
      ],
      "stateMutability": "view",
      "type": "function"
    }
  ],
  "transactionHash": "0xda461ae38779f3f0c62181377d8edfbee18b4186fd97a22e8a0f3e3697431c1f",
  "args": [
    "0xE317bF090911AF03fEa09c1707Ec370EdFf8C0A8"
  ],
  "numDeployments": 4,
  "solcInputHash": "89b2d6f7a26af1932ee2a0d90213ef66",
  "bytecode": "0x608060405234801561001057600080fd5b5060405161093438038061093483398101604081905261002f91610062565b60008054336001600160a01b031991821617909155600180549091166001600160a01b0392909216919091179055610092565b60006020828403121561007457600080fd5b81516001600160a01b038116811461008b57600080fd5b9392505050565b610893806100a16000396000f3fe6080604052600436106100865760003560e01c806394f649dd1161005957806394f649dd146101225780639da314171461014f578063d6d6817714610171578063d6df096d146101a6578063e4b2fb79146101c657600080fd5b806324600fc31461008b5780633b76594d146100a257806343753b4d146100b55780638da5cb5b146100ea575b600080fd5b34801561009757600080fd5b506100a06101e6565b005b6100a06100b0366004610655565b610322565b3480156100c157600080fd5b506100d56100d0366004610685565b61043d565b60405190151581526020015b60405180910390f35b3480156100f657600080fd5b5060005461010a906001600160a01b031681565b6040516001600160a01b0390911681526020016100e1565b34801561012e57600080fd5b5061014261013d366004610707565b610504565b6040516100e19190610729565b34801561015b57600080fd5b5061016461058d565b6040516100e19190610778565b34801561017d57600080fd5b5061019161018c3660046107c5565b6105ef565b604080519283526020830191909152016100e1565b3480156101b257600080fd5b5060015461010a906001600160a01b031681565b3480156101d257600080fd5b5061010a6101e1366004610655565b61062b565b6000546001600160a01b031633146102545760405162461bcd60e51b815260206004820152602660248201527f4f6e6c7920746865206f776e65722063616e2063616c6c20746869732066756e60448201526531ba34b7b71760d11b60648201526084015b60405180910390fd5b47806102a25760405162461bcd60e51b815260206004820152601e60248201527f4e6f2066756e647320617661696c61626c6520746f2077697468647261770000604482015260640161024b565b600080546040516001600160a01b039091169183156108fc02918491818181858888f193505050501580156102db573d6000803e3d6000fd5b506000546040518281526001600160a01b03909116907f7fcf532c15f0a6db0bd6d0e038bea71d30d808c7d98cb3bf7268a95bf5081b65906020015b60405180910390a250565b600034116103725760405162461bcd60e51b815260206004820152601860248201527f4d7573742073656e642045544820746f206465706f7369740000000000000000604482015260640161024b565b3360008181526002602081815260408084208151808301909252348252818301878152815460018181018455838852858820945191870290940190815590519083015594909352529054900361040557600380546001810182556000919091527fc2575a0e9e593c00f959f8c92f12db2869c3395a3b0502d05e2516446f71f85b0180546001600160a01b031916331790555b604080513481526020810183905233917f0b05f0d1cd0819f155b8a61f60baf7767c1ee49d04aeaab701df236140eb93f99101610317565b6001546040516343753b4d60e01b815260009182916001600160a01b03909116906343753b4d906104789089908990899089906004016107ef565b602060405180830381865afa158015610495573d6000803e3d6000fd5b505050506040513d601f19601f820116820180604052508101906104b9919061083b565b9050806104fb5760405162461bcd60e51b815260206004820152601060248201526f24b73b30b634b2103d3596b83937b7b360811b604482015260640161024b565b95945050505050565b6001600160a01b0381166000908152600260209081526040808320805482518185028101850190935280835260609492939192909184015b828210156105825783829060005260206000209060020201604051806040016040529081600082015481526020016001820154815250508152602001906001019061053c565b505050509050919050565b606060038054806020026020016040519081016040528092919081815260200182805480156105e557602002820191906000526020600020905b81546001600160a01b031681526001909101906020018083116105c7575b5050505050905090565b6002602052816000526040600020818154811061060b57600080fd5b600091825260209091206002909102018054600190910154909250905082565b6003818154811061063b57600080fd5b6000918252602090912001546001600160a01b0316905081565b60006020828403121561066757600080fd5b5035919050565b806040810183101561067f57600080fd5b92915050565b60008060008061012080868803121561069d57600080fd5b6106a7878761066e565b945060c08601878111156106ba57600080fd5b6040870194506106ca888261066e565b9350508681870111156106dc57600080fd5b50929591945092610100019150565b80356001600160a01b038116811461070257600080fd5b919050565b60006020828403121561071957600080fd5b610722826106eb565b9392505050565b602080825282518282018190526000919060409081850190868401855b8281101561076b57815180518552860151868501529284019290850190600101610746565b5091979650505050505050565b6020808252825182820181905260009190848201906040850190845b818110156107b95783516001600160a01b031683529284019291840191600101610794565b50909695505050505050565b600080604083850312156107d857600080fd5b6107e1836106eb565b946020939093013593505050565b61012081016040808784378083018660005b600281101561081e57838284379183019190830190600101610801565b505050808560c08501375060208361010084013795945050505050565b60006020828403121561084d57600080fd5b8151801515811461072257600080fdfea2646970667358221220c864344490c57cb0c6ae3407acbaeecdca27114ba783ca9af1e074987d4d60f764736f6c63430008110033",
  "devdoc": {
    "kind": "dev",
    "methods": {},
    "version": 1
  },
  "userdoc": {
    "kind": "user",
    "methods": {},
    "version": 1
  },
  "storageLayout": {
    "storage": [
      {
        "astId": 28,
        "contract": "contracts/ZKFunding.sol:ZKFundingContract",
        "label": "owner",
        "offset": 0,
        "slot": "0",
        "type": "t_address"
      },
      {
        "astId": 31,
        "contract": "contracts/ZKFunding.sol:ZKFundingContract",
        "label": "zkVerifier",
        "offset": 0,
        "slot": "1",
        "type": "t_contract(Groth16Verifier)26"
      },
      {
        "astId": 42,
        "contract": "contracts/ZKFunding.sol:ZKFundingContract",
        "label": "deposits",
        "offset": 0,
        "slot": "2",
        "type": "t_mapping(t_address,t_array(t_struct(Deposit)36_storage)dyn_storage)"
      },
      {
        "astId": 45,
        "contract": "contracts/ZKFunding.sol:ZKFundingContract",
        "label": "depositors",
        "offset": 0,
        "slot": "3",
        "type": "t_array(t_address)dyn_storage"
      }
    ],
    "types": {
      "t_address": {
        "encoding": "inplace",
        "label": "address",
        "numberOfBytes": "20"
      },
      "t_array(t_address)dyn_storage": {
        "base": "t_address",
        "encoding": "dynamic_array",
        "label": "address[]",
        "numberOfBytes": "32"
      },
      "t_array(t_struct(Deposit)36_storage)dyn_storage": {
        "base": "t_struct(Deposit)36_storage",
        "encoding": "dynamic_array",
        "label": "struct ZKFundingContract.Deposit[]",
        "numberOfBytes": "32"
      },
      "t_contract(Groth16Verifier)26": {
        "encoding": "inplace",
        "label": "contract Groth16Verifier",
        "numberOfBytes": "20"
      },
      "t_mapping(t_address,t_array(t_struct(Deposit)36_storage)dyn_storage)": {
        "encoding": "mapping",
        "key": "t_address",
        "label": "mapping(address => struct ZKFundingContract.Deposit[])",
        "numberOfBytes": "32",
        "value": "t_array(t_struct(Deposit)36_storage)dyn_storage"
      },
      "t_struct(Deposit)36_storage": {
        "encoding": "inplace",
        "label": "struct ZKFundingContract.Deposit",
        "members": [
          {
            "astId": 33,
            "contract": "contracts/ZKFunding.sol:ZKFundingContract",
            "label": "amount",
            "offset": 0,
            "slot": "0",
            "type": "t_uint256"
          },
          {
            "astId": 35,
            "contract": "contracts/ZKFunding.sol:ZKFundingContract",
            "label": "pubSignal",
            "offset": 0,
            "slot": "1",
            "type": "t_uint256"
          }
        ],
        "numberOfBytes": "64"
      },
      "t_uint256": {
        "encoding": "inplace",
        "label": "uint256",
        "numberOfBytes": "32"
      }
    }
  }
}